{
  "contractName": "UserSign",
  "abi": [
    {
      "constant": false,
      "inputs": [
        {
          "internalType": "bytes32",
          "name": "documentHash",
          "type": "bytes32"
        },
        {
          "internalType": "address",
          "name": "user",
          "type": "address"
        }
      ],
      "name": "inviteUser",
      "outputs": [
        {
          "internalType": "address",
          "name": "u",
          "type": "address"
        }
      ],
      "payable": false,
      "stateMutability": "nonpayable",
      "type": "function"
    },
    {
      "constant": false,
      "inputs": [
        {
          "internalType": "bytes32",
          "name": "documentHash",
          "type": "bytes32"
        }
      ],
      "name": "signDocument",
      "outputs": [
        {
          "internalType": "bool",
          "name": "success",
          "type": "bool"
        }
      ],
      "payable": false,
      "stateMutability": "nonpayable",
      "type": "function"
    },
    {
      "constant": true,
      "inputs": [
        {
          "internalType": "bytes32",
          "name": "documentHash",
          "type": "bytes32"
        },
        {
          "internalType": "address",
          "name": "user",
          "type": "address"
        }
      ],
      "name": "checkSignature",
      "outputs": [
        {
          "internalType": "bool",
          "name": "is_signed",
          "type": "bool"
        }
      ],
      "payable": false,
      "stateMutability": "view",
      "type": "function"
    },
    {
      "constant": true,
      "inputs": [
        {
          "internalType": "bytes32",
          "name": "documentHash",
          "type": "bytes32"
        }
      ],
      "name": "allSigners",
      "outputs": [
        {
          "internalType": "address[]",
          "name": "all_signers",
          "type": "address[]"
        }
      ],
      "payable": false,
      "stateMutability": "view",
      "type": "function"
    }
  ],
  "bytecode": "0x608060405234801561001057600080fd5b50610bd5806100206000396000f3fe608060405234801561001057600080fd5b506004361061004c5760003560e01c8063166cba3814610051578063361ca273146100975780637181a569146100fd5780637b799d8714610180575b600080fd5b61007d6004803603602081101561006757600080fd5b810190808035906020019092919050505061020e565b604051808215151515815260200191505060405180910390f35b6100e3600480360360408110156100ad57600080fd5b8101908080359060200190929190803573ffffffffffffffffffffffffffffffffffffffff1690602001909291905050506103a2565b604051808215151515815260200191505060405180910390f35b6101296004803603602081101561011357600080fd5b810190808035906020019092919050505061040c565b6040518080602001828103825283818151815260200191508051906020019060200280838360005b8381101561016c578082015181840152602081019050610151565b505050509050019250505060405180910390f35b6101cc6004803603604081101561019657600080fd5b8101908080359060200190929190803573ffffffffffffffffffffffffffffffffffffffff169060200190929190505050610595565b604051808273ffffffffffffffffffffffffffffffffffffffff1673ffffffffffffffffffffffffffffffffffffffff16815260200191505060405180910390f35b600080600083815260200190815260200160002060003373ffffffffffffffffffffffffffffffffffffffff1673ffffffffffffffffffffffffffffffffffffffff16815260200190815260200160002060000160009054906101000a900460ff1615806102d8575060008083815260200190815260200160002060003373ffffffffffffffffffffffffffffffffffffffff1673ffffffffffffffffffffffffffffffffffffffff16815260200190815260200160002060000160019054906101000a900460ff165b1561032e576040517f08c379a000000000000000000000000000000000000000000000000000000000815260040180806020018281038252602e815260200180610b28602e913960400191505060405180910390fd5b600160008084815260200190815260200160002060003373ffffffffffffffffffffffffffffffffffffffff1673ffffffffffffffffffffffffffffffffffffffff16815260200190815260200160002060000160016101000a81548160ff02191690831515021790555060019050919050565b600080600084815260200190815260200160002060008373ffffffffffffffffffffffffffffffffffffffff1673ffffffffffffffffffffffffffffffffffffffff16815260200190815260200160002060000160019054906101000a900460ff16905092915050565b60606002600083815260200190815260200160002060000160009054906101000a900460ff1680156104a057506002600083815260200190815260200160002060000160019054906101000a900473ffffffffffffffffffffffffffffffffffffffff1673ffffffffffffffffffffffffffffffffffffffff163373ffffffffffffffffffffffffffffffffffffffff1614155b156104f6576040517f08c379a0000000000000000000000000000000000000000000000000000000008152600401808060200182810382526024815260200180610b566024913960400191505060405180910390fd5b6001600083815260200190815260200160002080548060200260200160405190810160405280929190818152602001828054801561058957602002820191906000526020600020905b8160009054906101000a900473ffffffffffffffffffffffffffffffffffffffff1673ffffffffffffffffffffffffffffffffffffffff168152602001906001019080831161053f575b50505050509050919050565b60006002600084815260200190815260200160002060000160009054906101000a900460ff16801561062957506002600084815260200190815260200160002060000160019054906101000a900473ffffffffffffffffffffffffffffffffffffffff1673ffffffffffffffffffffffffffffffffffffffff163373ffffffffffffffffffffffffffffffffffffffff1614155b1561067f576040517f08c379a0000000000000000000000000000000000000000000000000000000008152600401808060200182810382526027815260200180610b7a6027913960400191505060405180910390fd5b6002600084815260200190815260200160002060000160009054906101000a900460ff16801561071057506002600084815260200190815260200160002060000160019054906101000a900473ffffffffffffffffffffffffffffffffffffffff1673ffffffffffffffffffffffffffffffffffffffff163373ffffffffffffffffffffffffffffffffffffffff16145b156109205760008084815260200190815260200160002060008373ffffffffffffffffffffffffffffffffffffffff1673ffffffffffffffffffffffffffffffffffffffff16815260200190815260200160002060000160009054906101000a900460ff16156107cb576040517f08c379a000000000000000000000000000000000000000000000000000000000815260040180806020018281038252602c815260200180610afc602c913960400191505060405180910390fd5b600160008085815260200190815260200160002060008473ffffffffffffffffffffffffffffffffffffffff1673ffffffffffffffffffffffffffffffffffffffff16815260200190815260200160002060000160006101000a81548160ff021916908315150217905550600080600085815260200190815260200160002060008473ffffffffffffffffffffffffffffffffffffffff1673ffffffffffffffffffffffffffffffffffffffff16815260200190815260200160002060000160016101000a81548160ff021916908315150217905550600160008481526020019081526020016000208290806001815401808255809150509060018203906000526020600020016000909192909190916101000a81548173ffffffffffffffffffffffffffffffffffffffff021916908373ffffffffffffffffffffffffffffffffffffffff16021790555050819050610af5565b60016002600085815260200190815260200160002060000160006101000a81548160ff021916908315150217905550336002600085815260200190815260200160002060000160016101000a81548173ffffffffffffffffffffffffffffffffffffffff021916908373ffffffffffffffffffffffffffffffffffffffff160217905550600160008085815260200190815260200160002060008473ffffffffffffffffffffffffffffffffffffffff1673ffffffffffffffffffffffffffffffffffffffff16815260200190815260200160002060000160006101000a81548160ff021916908315150217905550600080600085815260200190815260200160002060008473ffffffffffffffffffffffffffffffffffffffff1673ffffffffffffffffffffffffffffffffffffffff16815260200190815260200160002060000160016101000a81548160ff021916908315150217905550600160008481526020019081526020016000208290806001815401808255809150509060018203906000526020600020016000909192909190916101000a81548173ffffffffffffffffffffffffffffffffffffffff021916908373ffffffffffffffffffffffffffffffffffffffff160217905550508190505b9291505056fe54686973207573657220686173206265656e20616c72656164792072657175657374656420746f207369676e546865207369676e61747572652077617320616c7265616479206d616465206f7220646f65736e742065786973745468697320646f63756d656e74206973206f776e6564206279206f746865722075736572547279696e6720746f206f776e20616e20616c7265616479206f776e656420646f63756d656e74a265627a7a723158204de1cf311da765c89caf0cede1c240a38eabb58bf681fe303344d3aabd9e008c64736f6c63430005100032",
  "source": "// SPDX-License-Identifier: MIT\r\npragma solidity >=0.4.22 <0.9.0;\r\n\r\ncontract UserSign {\r\n\r\n  //address owner;\r\n\r\n  struct signature{\r\n    bool exists;\r\n    bool signed;\r\n  }\r\n  struct own{\r\n    bool exists;\r\n    address owner_address;\r\n  }\r\n  mapping(bytes32 => mapping(address => signature)) docuSigns;\r\n  mapping(bytes32 => address[]) signers;\r\n  mapping(bytes32 => own) owner;\r\n\r\n  /*\r\n  mapping(bytes32 => address[]) to_sign;\r\n  mapping(bytes32 => bool) signed;\r\n\r\n  //Cosas de verificacion de identidad\r\n  mapping(address => bool) user_verified;\r\n  mapping(address => bytes32) user_codes;\r\n\r\n  modifier onlyOwner() {\r\n    require(msg.sender == owner);\r\n    _;\r\n  }\r\n\r\n  constructor() public{\r\n    owner = msg.sender;\r\n  }\r\n  */\r\n\r\n  //Add user to sign a document\r\n  function inviteUser(bytes32 documentHash, address user) public returns(address u) {\r\n    //Push retorna el nuevo largo del arreglo\r\n    /*\r\n    to_sign[documentHash].push(user);\r\n    */\r\n    if(owner[documentHash].exists && msg.sender != owner[documentHash].owner_address){\r\n      //Sender not owner of the document\r\n      revert(\"Trying to own an already owned document\");\r\n    }else if(owner[documentHash].exists && msg.sender == owner[documentHash].owner_address){\r\n      //Document exists and sender is the owner\r\n      if(docuSigns[documentHash][user].exists){\r\n        //User already requested to sign\r\n        revert(\"This user has been already requested to sign\");\r\n      }else{\r\n        //New user\r\n        docuSigns[documentHash][user].exists=true;\r\n        docuSigns[documentHash][user].signed=false;\r\n        signers[documentHash].push(user);\r\n        return(user);\r\n      }\r\n    }else{\r\n      //First time adding users to sign this document\r\n      owner[documentHash].exists=true;\r\n      owner[documentHash].owner_address=msg.sender;\r\n      docuSigns[documentHash][user].exists=true;\r\n      docuSigns[documentHash][user].signed=false;\r\n      signers[documentHash].push(user);\r\n      return(user);\r\n    }\r\n  }\r\n\r\n  //Sign a document\r\n  function signDocument(bytes32 documentHash) public returns(bool success){\r\n    /*\r\n    if (msg.sender != to_sign[documentHash]) {\r\n      revert();\r\n    }\r\n    signed[documentHash] = true;\r\n    */\r\n    if (!docuSigns[documentHash][msg.sender].exists || docuSigns[documentHash][msg.sender].signed) {\r\n      revert(\"The signature was already made or doesnt exist\");\r\n    }\r\n    docuSigns[documentHash][msg.sender].signed=true;\r\n    return(true);\r\n  }\r\n\r\n  //Check signature of a user\r\n  function checkSignature(bytes32 documentHash, address user) public view returns(bool is_signed) {\r\n    return(docuSigns[documentHash][user].signed);\r\n  }\r\n\r\n  //Return every signer given a document\r\n  function allSigners(bytes32 documentHash) public view returns(address[] memory all_signers){\r\n    if(owner[documentHash].exists && msg.sender != owner[documentHash].owner_address){\r\n      revert(\"This document is owned by other user\");\r\n    }else{\r\n      return(signers[documentHash]);\r\n    }\r\n  }\r\n\r\n  /*\r\n  //This part does the identity verification\r\n  function addUser(address user, bytes32 hashed_verification) public onlyOwner {\r\n    user_verified[user] = false;\r\n    user_codes[user] = hashed_verification;\r\n  }\r\n\r\n  function verify(bytes memory verification_code) public {\r\n    if (user_verified[msg.sender] == false && sha256(verification_code) == user_codes[msg.sender]) {\r\n      user_verified[msg.sender] = true;\r\n    }\r\n  }\r\n  */\r\n}",
  "sourcePath": "C:/Users/theen/Desktop/Usm/CoilEnv/Truffle/Pet-shop/contracts/DocuSign.sol",
  "compiler": {
    "name": "solc",
    "version": "0.5.16+commit.9c3226ce.Emscripten.clang"
  },
  "schemaVersion": "3.4.1",
  "updatedAt": "2021-06-15T04:59:24.749Z",
  "devdoc": {
    "methods": {}
  },
  "userdoc": {
    "methods": {}
  }
}